{
  "contractName": "JobMarket",
  "abi": [
    {
      "constant": true,
      "inputs": [
        {
          "name": "",
          "type": "uint256"
        }
      ],
      "name": "allCompanies",
      "outputs": [
        {
          "name": "",
          "type": "address"
        }
      ],
      "payable": false,
      "stateMutability": "view",
      "type": "function"
    },
    {
      "constant": true,
      "inputs": [
        {
          "name": "",
          "type": "address"
        }
      ],
      "name": "user",
      "outputs": [
        {
          "name": "registrationDate",
          "type": "uint256"
        },
        {
          "name": "emailAddress",
          "type": "string"
        },
        {
          "name": "skills",
          "type": "string"
        },
        {
          "name": "companyProfile",
          "type": "string"
        },
        {
          "name": "CV",
          "type": "string"
        },
        {
          "name": "isJobSeeker",
          "type": "bool"
        },
        {
          "name": "isCompany",
          "type": "bool"
        }
      ],
      "payable": false,
      "stateMutability": "view",
      "type": "function"
    },
    {
      "constant": true,
      "inputs": [
        {
          "name": "",
          "type": "uint256"
        }
      ],
      "name": "allJobs",
      "outputs": [
        {
          "name": "",
          "type": "address"
        }
      ],
      "payable": false,
      "stateMutability": "view",
      "type": "function"
    },
    {
      "constant": true,
      "inputs": [
        {
          "name": "",
          "type": "uint256"
        }
      ],
      "name": "allJobSeekers",
      "outputs": [
        {
          "name": "",
          "type": "address"
        }
      ],
      "payable": false,
      "stateMutability": "view",
      "type": "function"
    },
    {
      "constant": true,
      "inputs": [
        {
          "name": "",
          "type": "address"
        }
      ],
      "name": "jobPost",
      "outputs": [
        {
          "name": "postDate",
          "type": "uint256"
        },
        {
          "name": "jobOwner",
          "type": "address"
        },
        {
          "name": "jobDescription",
          "type": "string"
        },
        {
          "name": "salaryPounds",
          "type": "uint64"
        },
        {
          "name": "isComplete",
          "type": "bool"
        },
        {
          "name": "successfulCandidate",
          "type": "address"
        }
      ],
      "payable": false,
      "stateMutability": "view",
      "type": "function"
    },
    {
      "constant": true,
      "inputs": [
        {
          "name": "",
          "type": "address"
        }
      ],
      "name": "userJobApplication",
      "outputs": [
        {
          "name": "",
          "type": "address"
        }
      ],
      "payable": false,
      "stateMutability": "view",
      "type": "function"
    },
    {
      "anonymous": false,
      "inputs": [
        {
          "indexed": true,
          "name": "jobID",
          "type": "address"
        },
        {
          "indexed": true,
          "name": "jobPoster",
          "type": "address"
        },
        {
          "indexed": true,
          "name": "description",
          "type": "string"
        }
      ],
      "name": "JobAdded",
      "type": "event"
    },
    {
      "anonymous": false,
      "inputs": [
        {
          "indexed": true,
          "name": "jobID",
          "type": "address"
        },
        {
          "indexed": true,
          "name": "jobSeeker",
          "type": "address"
        },
        {
          "indexed": true,
          "name": "applicationDate",
          "type": "uint256"
        }
      ],
      "name": "JobApplied",
      "type": "event"
    },
    {
      "anonymous": false,
      "inputs": [
        {
          "indexed": true,
          "name": "userID",
          "type": "address"
        },
        {
          "indexed": true,
          "name": "registrationDate",
          "type": "uint256"
        }
      ],
      "name": "JobSeekerCreated",
      "type": "event"
    },
    {
      "anonymous": false,
      "inputs": [
        {
          "indexed": true,
          "name": "companyID",
          "type": "address"
        },
        {
          "indexed": true,
          "name": "registrationDate",
          "type": "uint256"
        }
      ],
      "name": "CompanyCreated",
      "type": "event"
    },
    {
      "anonymous": false,
      "inputs": [
        {
          "indexed": true,
          "name": "jobID",
          "type": "address"
        },
        {
          "indexed": true,
          "name": "jobSeekerAddress",
          "type": "address"
        }
      ],
      "name": "PositionFilled",
      "type": "event"
    },
    {
      "constant": false,
      "inputs": [
        {
          "name": "_jobDescription",
          "type": "string"
        },
        {
          "name": "_salary",
          "type": "uint64"
        }
      ],
      "name": "addJob",
      "outputs": [
        {
          "name": "",
          "type": "bool"
        }
      ],
      "payable": false,
      "stateMutability": "nonpayable",
      "type": "function"
    },
    {
      "constant": false,
      "inputs": [
        {
          "name": "_jobID",
          "type": "address"
        }
      ],
      "name": "applyForJob",
      "outputs": [
        {
          "name": "",
          "type": "bool"
        }
      ],
      "payable": false,
      "stateMutability": "nonpayable",
      "type": "function"
    },
    {
      "constant": true,
      "inputs": [
        {
          "name": "_jobID",
          "type": "address"
        }
      ],
      "name": "getJobDetails",
      "outputs": [
        {
          "name": "_postDate",
          "type": "uint256"
        },
        {
          "name": "_jobOwner",
          "type": "address"
        },
        {
          "name": "_jobDescription",
          "type": "string"
        },
        {
          "name": "_salary",
          "type": "uint64"
        },
        {
          "name": "_applicantsCount",
          "type": "uint256"
        },
        {
          "name": "_applicants",
          "type": "address[]"
        }
      ],
      "payable": false,
      "stateMutability": "view",
      "type": "function"
    },
    {
      "constant": true,
      "inputs": [
        {
          "name": "_jobSeekerAddress",
          "type": "address"
        }
      ],
      "name": "getJobSeekerDetails",
      "outputs": [
        {
          "name": "",
          "type": "uint256"
        },
        {
          "name": "",
          "type": "string"
        },
        {
          "name": "",
          "type": "address[]"
        },
        {
          "name": "",
          "type": "string"
        },
        {
          "name": "",
          "type": "string"
        }
      ],
      "payable": false,
      "stateMutability": "view",
      "type": "function"
    },
    {
      "constant": true,
      "inputs": [
        {
          "name": "_companyID",
          "type": "address"
        }
      ],
      "name": "getCompanyDetails",
      "outputs": [
        {
          "name": "",
          "type": "uint256"
        },
        {
          "name": "",
          "type": "string"
        },
        {
          "name": "",
          "type": "string"
        }
      ],
      "payable": false,
      "stateMutability": "view",
      "type": "function"
    },
    {
      "constant": false,
      "inputs": [
        {
          "name": "_skills",
          "type": "string"
        },
        {
          "name": "_CV",
          "type": "string"
        },
        {
          "name": "_email",
          "type": "string"
        }
      ],
      "name": "registerUser",
      "outputs": [
        {
          "name": "",
          "type": "bool"
        }
      ],
      "payable": false,
      "stateMutability": "nonpayable",
      "type": "function"
    },
    {
      "constant": false,
      "inputs": [
        {
          "name": "_companyProfile",
          "type": "string"
        },
        {
          "name": "_email",
          "type": "string"
        }
      ],
      "name": "registerCompany",
      "outputs": [
        {
          "name": "",
          "type": "bool"
        }
      ],
      "payable": false,
      "stateMutability": "nonpayable",
      "type": "function"
    },
    {
      "constant": false,
      "inputs": [
        {
          "name": "_jobID",
          "type": "address"
        },
        {
          "name": "_jobSeekerAddress",
          "type": "address"
        }
      ],
      "name": "fillPosition",
      "outputs": [
        {
          "name": "",
          "type": "bool"
        }
      ],
      "payable": false,
      "stateMutability": "nonpayable",
      "type": "function"
    },
    {
      "constant": true,
      "inputs": [],
      "name": "getAllJobs",
      "outputs": [
        {
          "name": "",
          "type": "address[]"
        }
      ],
      "payable": false,
      "stateMutability": "view",
      "type": "function"
    },
    {
      "constant": true,
      "inputs": [
        {
          "name": "_userID",
          "type": "address"
        }
      ],
      "name": "getJobsUserAppliedTo",
      "outputs": [
        {
          "name": "",
          "type": "address[]"
        }
      ],
      "payable": false,
      "stateMutability": "view",
      "type": "function"
    },
    {
      "constant": true,
      "inputs": [
        {
          "name": "_companyID",
          "type": "address"
        }
      ],
      "name": "getJobsCompanyPosted",
      "outputs": [
        {
          "name": "",
          "type": "address[]"
        }
      ],
      "payable": false,
      "stateMutability": "view",
      "type": "function"
    },
    {
      "constant": true,
      "inputs": [
        {
          "name": "_jobID",
          "type": "address"
        }
      ],
      "name": "checkFilledJobs",
      "outputs": [
        {
          "name": "",
          "type": "bool"
        }
      ],
      "payable": false,
      "stateMutability": "view",
      "type": "function"
    },
    {
      "constant": true,
      "inputs": [
        {
          "name": "_jobID",
          "type": "address"
        }
      ],
      "name": "getEmployedJobSeeker",
      "outputs": [
        {
          "name": "",
          "type": "address"
        }
      ],
      "payable": false,
      "stateMutability": "view",
      "type": "function"
    },
    {
      "constant": true,
      "inputs": [],
      "name": "getAllCompanies",
      "outputs": [
        {
          "name": "",
          "type": "address[]"
        }
      ],
      "payable": false,
      "stateMutability": "view",
      "type": "function"
    },
    {
      "constant": true,
      "inputs": [],
      "name": "getAllJobSeekers",
      "outputs": [
        {
          "name": "",
          "type": "address[]"
        }
      ],
      "payable": false,
      "stateMutability": "view",
      "type": "function"
    }
  ],
  "bytecode": "0x608060405234801561001057600080fd5b50612661806100206000396000f3fe608060405234801561001057600080fd5b50600436106101375760003560e01c80639292c441116100b8578063a785f5981161007c578063a785f59814610a26578063a7fd704914610a4c578063b18008d214610a72578063d637dcfa14610b93578063eadbd8dc14610d41578063fa3fbc9614610d4957610137565b80639292c441146108d8578063965a79fb146108fe5780639b8fc05014610906578063a51ec92014610923578063a5f4bc5314610a0057610137565b80634fab1b31116100ff5780634fab1b311461055157806358a1a8331461057f57806374448ba4146105a557806381e7e20e146106ce57806390c3e979146108bb57610137565b80630558d3e91461013c5780633a5dc29114610247578063408bf4c3146103fc57806342c53c76146104545780634d09df861461048d575b600080fd5b6101626004803603602081101561015257600080fd5b50356001600160a01b0316610d6f565b604051808481526020018060200180602001838103835285818151815260200191508051906020019080838360005b838110156101a9578181015183820152602001610191565b50505050905090810190601f1680156101d65780820380516001836020036101000a031916815260200191505b50838103825284518152845160209182019186019080838360005b838110156102095781810151838201526020016101f1565b50505050905090810190601f1680156102365780820380516001836020036101000a031916815260200191505b509550505050505060405180910390f35b61026d6004803603602081101561025d57600080fd5b50356001600160a01b0316611095565b6040518086815260200180602001806020018060200180602001858103855289818151815260200191508051906020019080838360005b838110156102bc5781810151838201526020016102a4565b50505050905090810190601f1680156102e95780820380516001836020036101000a031916815260200191505b508581038452885181528851602091820191808b01910280838360005b8381101561031e578181015183820152602001610306565b50505050905001858103835287818151815260200191508051906020019080838360005b8381101561035a578181015183820152602001610342565b50505050905090810190601f1680156103875780820380516001836020036101000a031916815260200191505b50858103825286518152865160209182019188019080838360005b838110156103ba5781810151838201526020016103a2565b50505050905090810190601f1680156103e75780820380516001836020036101000a031916815260200191505b50995050505050505050505060405180910390f35b610404611429565b60408051602080825283518183015283519192839290830191858101910280838360005b83811015610440578181015183820152602001610428565b505050509050019250505060405180910390f35b6104716004803603602081101561046a57600080fd5b503561148c565b604080516001600160a01b039092168252519081900360200190f35b61053d600480360360408110156104a357600080fd5b810190602081018135600160201b8111156104bd57600080fd5b8201836020820111156104cf57600080fd5b803590602001918460018302840111600160201b831117156104f057600080fd5b91908080601f0160208091040260200160405190810160405280939291908181526020018383808284376000920191909152509295505050903567ffffffffffffffff1691506114b39050565b604080519115158252519081900360200190f35b61053d6004803603604081101561056757600080fd5b506001600160a01b0381358116916020013516611699565b6104046004803603602081101561059557600080fd5b50356001600160a01b0316611826565b61053d600480360360408110156105bb57600080fd5b810190602081018135600160201b8111156105d557600080fd5b8201836020820111156105e757600080fd5b803590602001918460018302840111600160201b8311171561060857600080fd5b91908080601f0160208091040260200160405190810160405280939291908181526020018383808284376000920191909152509295949360208101935035915050600160201b81111561065a57600080fd5b82018360208201111561066c57600080fd5b803590602001918460018302840111600160201b8311171561068d57600080fd5b91908080601f01602080910402602001604051908101604052809392919081815260200183838082843760009201919091525092955061189e945050505050565b6106f4600480360360208110156106e457600080fd5b50356001600160a01b03166119e1565b6040518088815260200180602001806020018060200180602001871515151581526020018615151515815260200185810385528b818151815260200191508051906020019080838360005b8381101561075757818101518382015260200161073f565b50505050905090810190601f1680156107845780820380516001836020036101000a031916815260200191505b5085810384528a5181528a516020918201918c019080838360005b838110156107b757818101518382015260200161079f565b50505050905090810190601f1680156107e45780820380516001836020036101000a031916815260200191505b5085810383528951815289516020918201918b019080838360005b838110156108175781810151838201526020016107ff565b50505050905090810190601f1680156108445780820380516001836020036101000a031916815260200191505b5085810382528851815288516020918201918a019080838360005b8381101561087757818101518382015260200161085f565b50505050905090810190601f1680156108a45780820380516001836020036101000a031916815260200191505b509b50505050505050505050505060405180910390f35b610471600480360360208110156108d157600080fd5b5035611c4b565b610471600480360360208110156108ee57600080fd5b50356001600160a01b0316611c58565b610404611caa565b6104716004803603602081101561091c57600080fd5b5035611d0a565b6109496004803603602081101561093957600080fd5b50356001600160a01b0316611d17565b604080518781526001600160a01b0380881660208084019190915267ffffffffffffffff87166060840152851515608084015290841660a083015260c0928201838152875193830193909352865191929160e084019188019080838360005b838110156109c05781810151838201526020016109a8565b50505050905090810190601f1680156109ed5780820380516001836020036101000a031916815260200191505b5097505050505050505060405180910390f35b61040460048036036020811015610a1657600080fd5b50356001600160a01b0316611df5565b61053d60048036036020811015610a3c57600080fd5b50356001600160a01b0316611e6c565b61047160048036036020811015610a6257600080fd5b50356001600160a01b0316611ea5565b610a9860048036036020811015610a8857600080fd5b50356001600160a01b0316611ec0565b60405180878152602001866001600160a01b03166001600160a01b03168152602001806020018567ffffffffffffffff1667ffffffffffffffff16815260200184815260200180602001838103835287818151815260200191508051906020019080838360005b83811015610b17578181015183820152602001610aff565b50505050905090810190601f168015610b445780820380516001836020036101000a031916815260200191505b508381038252845181528451602091820191808701910280838360005b83811015610b79578181015183820152602001610b61565b505050509050019850505050505050505060405180910390f35b61053d60048036036060811015610ba957600080fd5b810190602081018135600160201b811115610bc357600080fd5b820183602082011115610bd557600080fd5b803590602001918460018302840111600160201b83111715610bf657600080fd5b91908080601f0160208091040260200160405190810160405280939291908181526020018383808284376000920191909152509295949360208101935035915050600160201b811115610c4857600080fd5b820183602082011115610c5a57600080fd5b803590602001918460018302840111600160201b83111715610c7b57600080fd5b91908080601f0160208091040260200160405190810160405280939291908181526020018383808284376000920191909152509295949360208101935035915050600160201b811115610ccd57600080fd5b820183602082011115610cdf57600080fd5b803590602001918460018302840111600160201b83111715610d0057600080fd5b91908080601f016020809104026020016040519081016040528093929190818152602001838380828437600092019190915250929550612064945050505050565b6104046121c1565b61053d60048036036020811015610d5f57600080fd5b50356001600160a01b0316612221565b6000606080610d7c6123e5565b6001600160a01b038516600090815260016020818152604092839020835161010080820186528254825282850180548751600297821615909302600019011695909504601f8101859004850282018501909652858152909491938584019391929091830182828015610e2f5780601f10610e0457610100808354040283529160200191610e2f565b820191906000526020600020905b815481529060010190602001808311610e1257829003601f168201915b5050509183525050600282810180546040805160206001841615610100026000190190931694909404601f81018390048302850183019091528084529381019390830182828015610ec15780601f10610e9657610100808354040283529160200191610ec1565b820191906000526020600020905b815481529060010190602001808311610ea457829003601f168201915b505050918352505060038201805460408051602060026001851615610100026000190190941693909304601f8101849004840282018401909252818152938201939291830182828015610f555780601f10610f2a57610100808354040283529160200191610f55565b820191906000526020600020905b815481529060010190602001808311610f3857829003601f168201915b5050505050815260200160048201805480602002602001604051908101604052809291908181526020018280548015610fb757602002820191906000526020600020905b81546001600160a01b03168152600190910190602001808311610f99575b505050918352505060058201805460408051602060026001851615610100026000190190941693909304601f810184900484028201840190925281815293820193929183018282801561104b5780601f106110205761010080835404028352916020019161104b565b820191906000526020600020905b81548152906001019060200180831161102e57829003601f168201915b50505091835250506006919091015460ff80821615156020808501919091526101009092041615156040909201919091528151908201516060909201519097919650945092505050565b336000908152600160208190526040822060060154606091829182918291610100900460ff161515146110fc57604051600160e51b62461bcd0281526004018080602001828103825260388152602001806125fe6038913960400191505060405180910390fd5b6111046123e5565b6001600160a01b038716600090815260016020818152604092839020835161010080820186528254825282850180548751600297821615909302600019011695909504601f81018590048502820185019096528581529094919385840193919290918301828280156111b75780601f1061118c576101008083540402835291602001916111b7565b820191906000526020600020905b81548152906001019060200180831161119a57829003601f168201915b5050509183525050600282810180546040805160206001841615610100026000190190931694909404601f810183900483028501830190915280845293810193908301828280156112495780601f1061121e57610100808354040283529160200191611249565b820191906000526020600020905b81548152906001019060200180831161122c57829003601f168201915b505050918352505060038201805460408051602060026001851615610100026000190190941693909304601f81018490048402820184019092528181529382019392918301828280156112dd5780601f106112b2576101008083540402835291602001916112dd565b820191906000526020600020905b8154815290600101906020018083116112c057829003601f168201915b505050505081526020016004820180548060200260200160405190810160405280929190818152602001828054801561133f57602002820191906000526020600020905b81546001600160a01b03168152600190910190602001808311611321575b505050918352505060058201805460408051602060026001851615610100026000190190941693909304601f81018490048402820184019092528181529382019392918301828280156113d35780601f106113a8576101008083540402835291602001916113d3565b820191906000526020600020905b8154815290600101906020018083116113b657829003601f168201915b50505091835250506006919091015460ff8082161515602080850191909152610100909204161515604092830152825191830151608084015160a08501519490920151929b909a50909850919650945092505050565b6060600580548060200260200160405190810160405280929190818152602001828054801561148157602002820191906000526020600020905b81546001600160a01b03168152600190910190602001808311611463575b505050505090505b90565b6005818154811061149957fe5b6000918252602090912001546001600160a01b0316905081565b336000908152600160208190526040822060060154610100900460ff1615151461151157604051600160e51b62461bcd0281526004018080602001828103825260388152602001806125fe6038913960400191505060405180910390fd5b6040805142602080830182905233606081901b8486015284516034818603018152605490940185528351938201939093206001600160a01b0381166000908152808352949094209182556001820180546001600160a01b0319169093179092558551839261158691600284019189019061242e565b506003818101805467ffffffffffffffff191667ffffffffffffffff881617905560058201805460ff1916905580546001810182556000919091527fc2575a0e9e593c00f959f8c92f12db2869c3395a3b0502d05e2516446f71f85b0180546001600160a01b0319166001600160a01b0384161790556040518651879190819060208401908083835b6020831061162e5780518252601f19909201916020918201910161160f565b5181516020939093036101000a6000190180199091169216919091179052604051920182900382209350339250506001600160a01b038516907fa7954cf0c61f0fb2008b4284de896666eedafcc3f0e35701f9087075896fc59490600090a450600195945050505050565b336000908152600160208190526040822060060154610100900460ff161515146116f757604051600160e51b62461bcd0281526004018080602001828103825260388152602001806125fe6038913960400191505060405180910390fd5b6001600160a01b0383811660009081526020819052604090206001015416331461175557604051600160e51b62461bcd0281526004018080602001828103825260318152602001806125a96031913960400191505060405180910390fd5b6001600160a01b03831660009081526020819052604090206005015460ff16156117b357604051600160e51b62461bcd0281526004018080602001828103825260258152602001806125226025913960400191505060405180910390fd5b6001600160a01b03838116600081815260208190526040808220600581018054600160ff1990911617610100600160a81b0319166101009689169687021790559051909392917fa6799b633b7b9d699c5c454a2c0dcd83296e7fc36dd80fb757deac5c44f6108891a35060019392505050565b6001600160a01b0381166000908152602081815260409182902060040180548351818402810184019094528084526060939283018282801561189157602002820191906000526020600020905b81546001600160a01b03168152600190910190602001808311611873575b505050505090505b919050565b3360009081526001602052604081206006015460ff161580156118d9575033600090815260016020526040902060060154610100900460ff16155b61191757604051600160e51b62461bcd0281526004018080602001828103825260258152602001806125846025913960400191505060405180910390fd5b3360009081526001602090815260409091204281558451909161194191600384019187019061242e565b5060068101805461ffff19166101001790558251611968906001830190602086019061242e565b506005805460018101825560009182527f036b6384b5eca791c62761152d0c79bb0604c104a5fb6f4eb0703f3154bb3db00180546001600160a01b03191633908117909155825460405190927fbb557fb0514805d7c30f51dda1b68eb81a61244419b9801ca8c2300784632a0b91a35060019392505050565b600160208181526000928352604092839020805481840180548651600296821615610100026000190190911695909504601f81018590048502860185019096528585529094919392909190830182828015611a7d5780601f10611a5257610100808354040283529160200191611a7d565b820191906000526020600020905b815481529060010190602001808311611a6057829003601f168201915b50505060028085018054604080516020601f6000196101006001871615020190941695909504928301859004850281018501909152818152959695945090925090830182828015611b0f5780601f10611ae457610100808354040283529160200191611b0f565b820191906000526020600020905b815481529060010190602001808311611af257829003601f168201915b5050505060038301805460408051602060026001851615610100026000190190941693909304601f8101849004840282018401909252818152949594935090830182828015611b9f5780601f10611b7457610100808354040283529160200191611b9f565b820191906000526020600020905b815481529060010190602001808311611b8257829003601f168201915b5050505060058301805460408051602060026001851615610100026000190190941693909304601f8101849004840282018401909252818152949594935090830182828015611c2f5780601f10611c0457610100808354040283529160200191611c2f565b820191906000526020600020905b815481529060010190602001808311611c1257829003601f168201915b5050506006909301549192505060ff8082169161010090041687565b6003818154811061149957fe5b6001600160a01b03811660009081526020819052604081206005015460ff1615156001141561189957506001600160a01b03808216600090815260208190526040902060050154610100900416611899565b60606003805480602002602001604051908101604052809291908181526020018280548015611481576020028201919060005260206000209081546001600160a01b03168152600190910190602001808311611463575050505050905090565b6004818154811061149957fe5b6000602081815291815260409081902080546001808301546002808501805487516101009582161595909502600019011691909104601f810188900488028401880190965285835292956001600160a01b039091169491929190830182828015611dc25780601f10611d9757610100808354040283529160200191611dc2565b820191906000526020600020905b815481529060010190602001808311611da557829003601f168201915b505050506003830154600590930154919267ffffffffffffffff169160ff8116915061010090046001600160a01b031686565b6001600160a01b038116600090815260016020908152604091829020600401805483518184028101840190945280845260609392830182828015611891576020028201919060005260206000209081546001600160a01b031681526001909101906020018083116118735750505050509050919050565b6001600160a01b03811660009081526020819052604081206005015460ff16151560011415611e9d57506001611899565b506000611899565b6002602052600090815260409020546001600160a01b031681565b60008060606000806060611ed26124ac565b6001600160a01b0388811660009081526020818152604091829020825160e08101845281548152600180830154909516818401526002808301805486516101009882161598909802600019011691909104601f8101859004850287018501865280875291959294860193909190830182828015611f905780601f10611f6557610100808354040283529160200191611f90565b820191906000526020600020905b815481529060010190602001808311611f7357829003601f168201915b5050509183525050600382015467ffffffffffffffff16602080830191909152600483018054604080518285028101850182528281529401939283018282801561200357602002820191906000526020600020905b81546001600160a01b03168152600190910190602001808311611fe5575b50505091835250506005919091015460ff811615156020808401919091526101009091046001600160a01b03166040928301526080830151805184519285015193850151606090950151929d939c50939a5090985091965090945092505050565b3360009081526001602052604081206006015460ff1615801561209f575033600090815260016020526040902060060154610100900460ff16155b6120dd57604051600160e51b62461bcd0281526004018080602001828103825260258152602001806125846025913960400191505060405180910390fd5b3360009081526001602090815260409091204281558551909161210791600284019188019061242e565b50835161211d906005830190602087019061242e565b50600681018054600160ff19909116811761ff001916909155835161214991830190602086019061242e565b506004805460018101825560009182527f8a35acfbc15ff81a39ae7d344fd709f28e8600b4aa8c65c6b64bfe7fe36bd19b0180546001600160a01b0319163390811790915560405142927f479c76c12ef13c148041057dd703aae51b473c3dace23214431b6d5401a109d591a3506001949350505050565b60606004805480602002602001604051908101604052809291908181526020018280548015611481576020028201919060005260206000209081546001600160a01b03168152600190910190602001808311611463575050505050905090565b33600090815260016020819052604082206006015460ff1615151461227a57604051600160e51b62461bcd02815260040180806020018281038252603d815260200180612547603d913960400191505060405180910390fd5b6001600160a01b03821660009081526020819052604090206005015460ff16156122d857604051600160e51b62461bcd0281526004018080602001828103825260258152602001806125226025913960400191505060405180910390fd5b336000908152600260205260409020546001600160a01b038381169116141561233557604051600160e51b62461bcd0281526004018080602001828103825260248152602001806125da6024913960400191505060405180910390fd5b6001600160a01b0382166000818152602081815260408083203380855260018085528386206004808501805480850182559089528789200180546001600160a01b03199081168617909155908201805493840181558852868820909201805483168917905582875260029095528386208054909116871790559151909492934293917fd736764f81f8ff44fac82477d2aafd56a6f2019183ff6bceac5cc98747c458a79190a45060019392505050565b6040518061010001604052806000815260200160608152602001606081526020016060815260200160608152602001606081526020016000151581526020016000151581525090565b828054600181600116156101000203166002900490600052602060002090601f016020900481019282601f1061246f57805160ff191683800117855561249c565b8280016001018555821561249c579182015b8281111561249c578251825591602001919060010190612481565b506124a8929150612507565b5090565b6040518060e001604052806000815260200160006001600160a01b0316815260200160608152602001600067ffffffffffffffff1681526020016060815260200160001515815260200160006001600160a01b031681525090565b61148991905b808211156124a8576000815560010161250d56fe7468697320706f736974696f6e2068617320616c7265616479206265656e2066696c6c6564706c656173652c2072656769737465722061732061206a6f62207365656b657220746f2061636365737320746869732066756e6374696f6e616c6974797468697320757365722068617320616c7265616479206265656e20726567697374657265646f6e6c79206a6f6220706f737465722063616e206d61726b2074686520706f736974696f6e20617320636f6d706c657465796f75206861766520616c7265616479206170706c69656420746f2074686973206a6f62706c656173652c20676574206120627573696e657373206163636f756e7420746f2075736520746869732066756e6374696f6e616c697479a165627a7a7230582049b7b58a2e5178fe21e86a7e60b53abaf271063f2299debae7b43fa7dd0cecd20029",
  "source": "pragma solidity ^0.5.8;\n\ncontract JobMarket {\n\n    modifier onlyRegisteredJobSeekers() {\n        require(user[msg.sender].isJobSeeker == true, 'please, register as a job seeker to access this functionality');\n        _;\n    }\n\n    modifier onlyRegisteredCompanies() {\n        require(user[msg.sender].isCompany == true, 'please, get a business account to use this functionality');\n        _;\n    }\n\n    modifier onlyRegisteredUsers() {\n        require(user[msg.sender].isJobSeeker == true || user[msg.sender].isJobSeeker == true,\n         'please, register first to access this functionality');\n        _;\n    }\n\n    struct JobPost {\n        uint postDate;\n        address jobOwner;\n        string jobDescription;\n        uint64 salaryPounds;\n        address[] applicants;\n        bool isComplete;\n        address successfulCandidate;\n    }\n\n    struct User {\n        uint registrationDate;\n        string emailAddress;\n        string skills;\n        string companyProfile;\n        address[] appliedJobs;\n        string CV;\n        bool isJobSeeker;\n        bool isCompany;\n    }\n\n    mapping(address => JobPost) public jobPost;\n    mapping(address => User) public user;\n    mapping(address => address) public userJobApplication;\n\n    address[] public allJobs;\n    address[] public allJobSeekers;\n    address[] public allCompanies;\n\n    event JobAdded(address indexed jobID, address indexed jobPoster, string indexed description);\n    event JobApplied(address indexed jobID, address indexed jobSeeker, uint indexed applicationDate);\n    event JobSeekerCreated(address indexed userID, uint indexed registrationDate);\n    event CompanyCreated(address indexed companyID, uint indexed registrationDate);\n    event PositionFilled(address indexed jobID, address indexed jobSeekerAddress);\n\n    function addJob(string memory _jobDescription, uint64 _salary) public onlyRegisteredCompanies returns(bool) {\n        uint tmp = uint(keccak256(abi.encodePacked(now, msg.sender)));\n        address _jobID = address(tmp);\n        JobPost storage jp = jobPost[_jobID];\n        jp.postDate = now;\n        jp.jobOwner = msg.sender;\n        jp.jobDescription = _jobDescription;\n        jp.salaryPounds = _salary;\n        jp.isComplete = false;\n        allJobs.push(_jobID);\n        emit JobAdded(_jobID, msg.sender, _jobDescription);\n        return true;\n    }\n\n    function applyForJob(address _jobID) public onlyRegisteredJobSeekers returns(bool){\n        require(jobPost[_jobID].isComplete == false, 'this position has already been filled');\n        require(userJobApplication[msg.sender] != _jobID, 'you have already applied to this job');\n        JobPost storage jp = jobPost[_jobID];\n        User storage u = user[msg.sender];\n        jp.applicants.push(msg.sender);\n        u.appliedJobs.push(_jobID);\n        userJobApplication[msg.sender] = _jobID;\n        emit JobApplied(_jobID, msg.sender, now);\n        return true;\n    }\n\n    function getJobDetails(address _jobID) public view returns(uint _postDate,\n        address _jobOwner, string memory _jobDescription, uint64 _salary, uint _applicantsCount, address[] memory _applicants){\n        JobPost memory jp = jobPost[_jobID];\n        uint applicantsCount = jp.applicants.length;\n        return(jp.postDate, jp.jobOwner, jp.jobDescription, jp.salaryPounds, applicantsCount, jp.applicants);\n    }\n\n    function getJobSeekerDetails(address _jobSeekerAddress) public onlyRegisteredCompanies view returns(uint,\n        string memory, address[] memory, string memory, string memory){\n        User memory u = user[_jobSeekerAddress];\n        return(u.registrationDate, u.skills, u.appliedJobs, u.CV, u.emailAddress);\n    }\n\n    function getCompanyDetails(address _companyID) public view returns(uint,\n        string memory, string memory){\n            User memory u = user[_companyID];\n            return(u.registrationDate, u.emailAddress, u.companyProfile);\n        }\n\n    function registerUser(string memory _skills, string memory _CV, string memory _email) public returns(bool){\n        require(user[msg.sender].isJobSeeker == false && user[msg.sender].isCompany == false,\n         'this user has already been registered');\n        User storage u = user[msg.sender];\n        u.registrationDate = now;\n        u.skills = _skills;\n        u.CV = _CV;\n        u.isJobSeeker = true;\n        u.isCompany = false;\n        u.emailAddress = _email;\n        allJobSeekers.push(msg.sender);\n        emit JobSeekerCreated(msg.sender, now);\n        return true;\n    }\n\n    function registerCompany(string memory _companyProfile, string memory _email) public returns(bool){\n        require(user[msg.sender].isJobSeeker == false && user[msg.sender].isCompany == false,\n         'this user has already been registered');\n        User storage u = user[msg.sender];\n        u.registrationDate = now;\n        u.companyProfile = _companyProfile;\n        u.isJobSeeker = false;\n        u.isCompany = true;\n        u.emailAddress = _email;\n        allCompanies.push(msg.sender);\n        emit CompanyCreated(msg.sender, u.registrationDate);\n        return true;\n    }\n\n    function fillPosition(address _jobID, address _jobSeekerAddress) public onlyRegisteredCompanies returns(bool){\n        require(jobPost[_jobID].jobOwner == msg.sender, \"only job poster can mark the position as complete\");\n        require(jobPost[_jobID].isComplete == false, \"this position has already been filled\");\n        JobPost storage jp = jobPost[_jobID];\n        jp.isComplete = true;\n        jp.successfulCandidate = _jobSeekerAddress;\n        emit PositionFilled(_jobID, _jobSeekerAddress);\n        return true;\n    }\n\n    function getAllJobs() public view returns(address[] memory){\n        return allJobs;\n    }\n\n    function getJobsUserAppliedTo(address _userID) public view returns(address[] memory){\n        return user[_userID].appliedJobs;\n    }\n\n    function getJobsCompanyPosted(address _companyID) public view returns(address[] memory){\n        return jobPost[_companyID].applicants;\n    }\n\n    function checkFilledJobs(address _jobID) public view returns(bool){\n        if(jobPost[_jobID].isComplete == true){\n            return true;\n        } else {\n            return false;\n        }\n    }\n\n    function getEmployedJobSeeker(address _jobID) public view returns(address) {\n        if(jobPost[_jobID].isComplete == true){\n            return jobPost[_jobID].successfulCandidate;\n        }\n    }\n\n    function getAllCompanies() public view returns(address[] memory){\n        return allCompanies;\n    }\n\n    function getAllJobSeekers() public view returns(address[] memory){\n        return allJobSeekers;\n    }\n}",
  "sourcePath": "/Users/vladmikhin/Desktop/CS_Learning/jobmarket/contracts/JobMarket.sol",
  "compiler": {
    "name": "solc",
    "version": "0.5.8+commit.23d335f2.Emscripten.clang"
  },
  "schemaVersion": "3.0.10",
  "updatedAt": "2019-08-02T15:01:35.869Z",
  "devdoc": {
    "methods": {}
  },
  "userdoc": {
    "methods": {}
  }
}